:020000040800F2
:1040000000500020FD660008016A0008056A0008EB
:10401000096A00080D6A0008116A0008616A000850
:10402000616A0008616A0008616A0008616A000844
:10403000616A0008616A0008616A0008AD790008D9
:10404000616A0008616A0008616A0008616A000824
:10405000616A0008616A00088D6C0008936C0008B2
:10406000996C00089F6C0008A56C0008A56B0008FF
:10407000B56B0008C56B0008D56B0008E56B000840
:10408000F56B0008056C0008B96A0008616A000851
:10409000917F0008616A0008616A0008AB6C000843
:1040A000957C0008B97C0008DD7C0008117D0008C3
:1040B000617D00086D7D0008797D0008DD760008CF
:1040C000F5760008E976000801770008616A0008C3
:1040D000616A00084D7E0008657E00087D7E00084C
:1040E000B36C0008616A0008616A000810B5054CED
:1040F000237833B9044B13B10448AFF30080012394
:10410000237010BD180D00200000000084A80008D6
:1041100008B5064B1BB106480649AFF300800648B8
:10412000036813B1054B03B1984708BD00000000B8
:1041300084A800081C0D0020180D002000000000BD
:104140000A4B1A680A4B9B6800BF00BF0749096801
:104150008A42F5D1C3F58C33482103F5A073B3FB34
:10416000F1F34FF47A7000FB0230704778160020AC
:1041700010E000E010B500219022044606F05CF942
:104180004FF6FF73E36110BD0D2930B524DC4B1EE3
:104190000C2B1ED8012404FA03F313F0150F05D1DC
:1041A00013F4687505D1DB0406D412E002F00F02A7
:1041B0000FE002F01F020CE002F00F0312F0020207
:1041C000856202D0C562046302E00F24C462026308
:1041D0001A4600EB8100426330BD00002DE9F74F25
:1041E0000022C0F88020C0F88420C0F88820D0F8D1
:1041F00088308A42D0F88070D0F88460009380F2D2
:104200000A81D0F88C30856B83F00104436BC0F8D1
:104210008C4043EA05250368AB4205DB00230360BD
:10422000436883F001034360C36B056C43EA0525D3
:104230008368AB4205DB00238360C36883F001031E
:10424000C360436C856C43EA05250369AB4205DB1B
:1042500000230361436983F0010343610368013371
:104260000360836801338360036901330361002CB9
:1042700073D0D0F818C0BCF1000F0ED1C369046A26
:10428000C3F3403884F0010484EA0808C3F3C0345F
:1042900048EA430304624462C361C46C0CF1010345
:1042A00003F01F03A342846A8361A4BF00238361D8
:1042B000002C47D1836E0F2B44D8DFE803F00808A9
:1042C00008080D0D0D0D17081C2E383E1C0DC36A75
:1042D000002B37DD013B34E0036B002B32D0C36A87
:1042E00001330F2B2DDD0023C3621EE0C36A013BA7
:1042F00048BF0F2325E0D0F830C0C36ABCF1000FDF
:1043000004D1013B1DD5C0F82CC00DE001330F2BAB
:1043100017DD0F23C362002307E0036B93B9C36A61
:10432000013B0ED50F23C362012303630AE0C36A76
:1043300001330F2BC8BF002303E0C36A0E2B01DC3F
:104340000133C362036E456E013443EA0525AC4276
:10435000A8BF00238462A8BF8362D0F854C0446918
:104360001CF0100F0194D0F804A0036DD0F80C904D
:10437000446A02D0C56A45670DE0C3F3C00803F084
:10438000010B48EA04084BEA0A0A18EA0A0A08BFBD
:10439000D446C0F874C0D0F858C01CF0100F02D03A
:1043A000C56A85670DE0C3F30018C3F3400A48EA05
:1043B00004084AEA090918EA090908BFCC46C0F806
:1043C00078C0D0F85CC01CF0100F02D0C36AC3677D
:1043D0000BE0019DC3F34018C3F3800348EA0404D3
:1043E0002B431C4018BF6446C467124B446F009DAA
:1043F00053F8244001322744846FC0F8807053F88A
:1044000024402644C46FC0F8846053F824301D440F
:10441000C0F88850EBE697FBF1F796FBF1F693FBBB
:10442000F1F1C0F88070C0F88460C0F8881003B063
:10443000BDE8F08F1C00002013B900F5AC7001E05E
:1044400000F5F470FFF7A0BE2DE9F043204B8BB0D0
:1044500001AA0646884603F10805174618685968F8
:10446000144603C40833AB422246F7D118681B79BF
:1044700005AA2371174B206003F1100591461868B7
:104480005968144603C40833AB422246F7D11B785F
:10449000B8F1100F237016D9A8F10D05A6F10D047F
:1044A00044440D2DC5EB04040DD9204639460D2298
:1044B00005F08EFF40B120464946112205F088FFE5
:1044C00010B1013DEAE7002420460BB0BDE8F083BF
:1044D000F0B50008FDB500082DE9F843044654F88E
:1044E0000C5B064600212046A42205F0A5FF6F7B49
:1044F000B168A7F13003092B98BF7FB205F16300C3
:10450000A1F1630194BF303F0627FFF79DFF48B13B
:104510000123706086F8543106F1B0000021A42216
:1045200005F08AFF3368022095F8622095F8C910DB
:10453000202A03D0013A02EB4202511A0122914093
:104540002761E27295F864E084F809E095F868C0A4
:1045500095F867E04EEA0C2E8E4403EB0E0C9CF8A7
:1045600001C013F80EE00EEB0C2EA4F814E095F841
:1045700068C095F867E04EEA0C2E8E440EF1020EEC
:1045800003EB0E0C9CF801C013F80EE00EEB0C2EA2
:10459000A4F844E095F868C095F867E04EEA0C2E60
:1045A0007144043103EB010E9EF801E0595C01EB0C
:1045B0000E21A4F8741095F8AAE095F8A91041EA24
:1045C0000E21E18213F8018001EB020E1FFA8EFE2C
:1045D000A4F816E084F81C8013F80EC002311FFA0C
:1045E00081F984F81DC0A4F8169095F86CE095F850
:1045F0006B1041EA0E21218313F801E08D18ADB252
:1046000084F81FE025835D5D0F2384F8205084F833
:10461000223084F8422084F84C8084F84DC084F81D
:104620004FE084F8505084F8523084F8722084F8B7
:104630007C8084F87DC084F87FE084F8805084F822
:10464000823084F8A220023196F8543189B2218355
:10465000A4F84690A4F84810A4F87690A4F878102E
:1046600033B1013806F1B004736801D01D465BE731
:1046700006F5AC70FFF77EFD06F5F470BDE8F84373
:10468000FFF778BD90F8543103B112B950F80C3BE4
:1046900001E04368B03093F86320012A0DD003692C
:1046A00006D3022A0BD1032BD4BF084B084B0AE0D8
:1046B000032BD4BF074B084B05E0084B03E0032B4B
:1046C000D4BF074B074B33F8110070471EB80008E2
:1046D00000C60008C0C1000840C500080EB60008AA
:1046E000CEB6000880C200082DE9F04F90F8543192
:1046F0008BB080460C46914603B11AB9474657F82D
:104700000C6B02E0466800F1B007237C002508939B
:10471000E38CAB460993079506950595049503959B
:1047200002952288B35CEF2B2CD9F03B06EB4301BA
:1047300091F8AA0091F8A930013243EA002363807E
:10474000F15C92B22172591C89B26180715C0233B2
:10475000617263802280B25C4FF0000A02F0FE02B8
:10476000324492F86A1092F8693043EA0123A38038
:10477000F25CE2725A1C92B2A280B25C02332273E3
:10478000A38065E003F12F01C9B21E2913D8D03BE5
:1047900006EB430292F86A1092F8693043EA01236B
:1047A000A380F25CE2725A1C92B2A280B25C023325
:1047B0002273A380F4E0D02B00F0F08003F13F01DE
:1047C000C9B20E294FF0000A02D84033A373E7E0C4
:1047D000C02B12D184F80DA0A4F816A0A4F818A03C
:1047E000A4F81AA084F80AA0A4F81CA0A4F826A093
:1047F000A4F828A0A4F81EA047E003F14E01C9B216
:104800000D291BD80122E2744046A3F1B1020D210B
:104810004B46FFF711FE238801339BB22380F35CE4
:104820007B70238801339BB22380F35C3B7084F858
:104830000AA0A7F802A087F806A0B1E0B12B05D125
:10484000013292B22280B35CE373A9E0B02B02D1B3
:1048500084F813A075E0A3F15002D2B25F2A17D8F2
:1048600084F80DA0A4F816A0A4F818A0A4F81AA023
:1048700084F80AA0A4F81CA0A4F826A0A4F828A0F4
:10488000A4F81EA022744FF0010A84F814A085E059
:10489000A3F14002D1B20F2912D806EB420292F8DE
:1048A000AA1092F8A93043EA01236380F25C2272D5
:1048B0005A1C92B26280B25C0233627263803EE044
:1048C000A3F12002D2B21F2A01D83A7268E0A3F104
:1048D0001002D1B20F2937D8102B02D10023E37474
:1048E00015E04B4640460D21FFF7A6FD2388013316
:1048F0009BB22380F35C7B70238801339BB22380BF
:10490000F35C3B700123E37400237B80BB7123883D
:1049100001339BB22380F25C02F0FE02324492F833
:104920006A1092F8693043EA0123A380F25CE272D4
:104930005A1C92B2A280B25C02332273A3804FF061
:10494000000A84F80AA02BE0092B03D10135EDB24F
:10495000029525E0082B03D10135EDB203951FE048
:10496000052B03D10135EDB2049519E0042B03D1D9
:104970000135EDB2059513E0032B03D10135EDB2FE
:1049800006950DE0022B03D10135EDB2079507E046
:10499000012B05D10135EDB2AB4601E0012200E06B
:1049A0000022238801332380002A3FF4BAAE002D71
:1049B00000F0AF805D451BD12288B35C511C89B2E9
:1049C0002180A384A38370184078715C033201EBCB
:1049D000002161852280002101226275E183002B84
:1049E00040F094803B69062B40F39080A2838DE0D9
:1049F000079B9D424DD100236375E3832388404686
:104A0000F25CA284A283DA1C92B22280B11891F8DF
:104A100001A0B25C053302EB0A221FFA82FA0FFAF8
:104A20008AF10029D8BFC2F1000A2380237CD8BFB5
:104A30001FFA8AFA19464A46A4F82AA00093FFF7FB
:104A400021FE089984464A464046CDF804C0FFF747
:104A500019FE009BDDF804C06374089BC0EB0C00DA
:104A600023743B691FFA80FC052BC8BF099BA4F87F
:104A70002CC0C8BFE384B4F926300FFA8CFCC3EB1A
:104A80000C0CBCF1000F41DACAF1000AA4F82AA00C
:104A90003CE0069B9D4203D12388F25C627333E0C5
:104AA000059B9D4203D12388F25CA2722CE0049BFB
:104AB0009D420ED12388F25C591C89B22180228448
:104AC000715C0233238000236184E283A383E38447
:104AD0001CE0039B9D4210D12388F35CFB71BB71EA
:104AE0002288531C9BB22380F1184978F35C03326F
:104AF00003EB0123BB80228008E0029B9D4205D18D
:104B00002388F35C7B72238801332380013DEDB25F
:104B10004DE7E37B84F82E300BB0BDE8F08F00004A
:104B20002DE9F047984690F8543191460C46089A82
:104B300003B11AB9064656F80C1B02E0416800F1B1
:104B4000B006237D002B00F0BB80657BA388B4F802
:104B500002E003EB85039D1C4F1997F801A04D5D02
:104B600005EB0A2A258DAA441FFA8AFAA4F806A0A2
:104B7000CF5C0B445D7871446B06A37A48BFA4F800
:104B800028A0C95C237C1944C9B20B0603D45F2951
:104B900028BF5F2100E00021FFF774FDE38CA28BAA
:104BA0009A44504411B2C0F30B0A0029A4F806A09D
:104BB0001BDD013A92B2A283BAB9A18C628DA183A6
:104BC0001344617D9BB2E38479B912F4004F1BB2A8
:104BD000B4F92C2002D09A4202DA06E09A4204DCB0
:104BE000637C23740023A383E38405F00F0239065A
:104BF000A2740CD5E38A17F0400F19B203D00E2926
:104C000005DC013302E00E3101DB013BE382A37DD1
:104C10001344DBB21A0601D5002302E00F2B88BF34
:104C20000F23A3743369A27B042BA37C03EB021331
:104C3000D4BF304A304AD35CA374FB0705D4E37C6D
:104C40001BB1A37C43F01003A37415F0800F4FEA4F
:104C5000670305F0200211D017F0200F618B14BFFD
:104C600063F00F0303F00F030B44DBB202B1638365
:104C700099F80020134489F8003005E0217E0B44A8
:104C8000DBB2B37202B1238398F800306D1005F0E7
:104C900048051D4388F80050637B227B0133DBB25B
:104CA0009A42637398BFE37A627A98BF6373A37A78
:104CB0000133DBB29A42A37203D8237AA37200E0D5
:104CC000A37498F800305B1088F80030E38B1AB2B8
:104CD000002A0CDD013B9BB2E38343B9237D83F0C3
:104CE000010323750BB1238C00E0638CE383BDE8E3
:104CF000F08700BF40C3000840C400082DE9FF470B
:104D000090F8543105460E4603B119B92C4654F8B3
:104D10000C3B02E0436800F1B004E27A04F1140AAB
:104D2000013AD2B2E27204F1440904F17408002A93
:104D30006DD194F84220013AD2B284F84220002A80
:104D40004BD1A28A9A5C002A42D1227B0132D2B294
:104D5000227393F86510914204BF93F86620227382
:104D6000227B93F8680093F867101A4441EA002107
:104D700092F8C90001EB400158184078595C01EBEA
:104D80000021A18293F8680093F8671041EA00219E
:104D900092F8C90001EB4001023158184078595C83
:104DA00001EB0021A4F8441093F8680093F8671011
:104DB00092F8C92041EA002101EB4202043299181D
:104DC0009B5C4A7803EB0223A4F87430002323721F
:104DD000284651463246FFF787FC94F87230013B73
:104DE000DBB284F8723023B9284649463246FFF7D1
:104DF0007BFC94F8A230013BDBB284F8A23023B9EB
:104E0000284641463246FFF76FFC637AE37200277B
:104E1000284651460DF10F020DF10E0300968DF854
:104E20000F708DF80E70FFF77BFE284649460DF196
:104E30000F020DF10E030096FFF772FE2846414661
:104E40000DF10F020DF10E030096FFF769FE2846E3
:104E500007219DF80E203346FFF7EEFA3946284623
:104E6000A27E3346FFF7E8FA628B28460121C2F39F
:104E700003223346FFF7E0FA2846022194F84A203D
:104E80003346FFF7D9FAB4F84A2028460321C2F383
:104E900003223346FFF7D0FA2846042194F87A20FB
:104EA0003346FFF7C9FAB4F87A2028460521C2F341
:104EB00003223346FFF7C0FA2846082194F826203B
:104EC0003346FFF7B9FA2846092194F856203346AD
:104ED000FFF7B2FA28460A2194F886203346FFF7F6
:104EE000ABFAA37A227A28461A44062102F01F025E
:104EF0003346FFF7A1FA63889DF80F7062781F446C
:104F00002378284603EB02231F44BFB20B21FAB2D9
:104F10003346FFF791FA3A0A334628460C21FFF749
:104F20008BFAA3795AB2002A09DD013BDBB2A371E7
:104F30002BB9E379A288A37163881344638004B01A
:104F4000BDE8F08710B500210446FFF7D7FE94F8BE
:104F500054312BB120460121BDE81040FFF7CEBEF1
:104F600010BD0000F8B51E4C23685A1CB3F5207F15
:104F7000226004DB1B48FFF7E5FF00232360194C88
:104F8000062104F5AC70FFF729F9D4F8DC61D4F8F8
:104F9000E0310227D4F8D85196FBF7F635441E4489
:104FA00094F8543183B104F5F4700621FFF716F933
:104FB000D4F86C3293FBF7F7D4F868323B441D44C5
:104FC000D4F870321F443E4447F6FF739E4234BF0C
:104FD000304618469D4228BF1D4645EA0040F8BDB0
:104FE000A40E0020AC0F002010B50C4C00214FF493
:104FF0001E72204605F020FA04F5AC70FFF7BAF8EF
:1050000004F5F470FFF7B6F8054B20462360054B16
:105010001B68A360BDE81040FFF75EBAAC0F00202C
:10502000DEB800085C00002008B5FFF79BFFC0F366
:10503000072303EB106008BD094B5A6942F00102D7
:105040005A61A3F6F87340225A60064ADA60064AAB
:105050009A6000221A6047F2B1021A60704700BFDE
:1050600000100240380D00200C08014010B50F4C14
:10507000204604F0DBF820461F2104F0EDF820461E
:105080000121022204F007F9012120460A4604F01A
:1050900006F920460121064A04F010F9204604F0E2
:1050A00011F92046BDE8104004F0C8B83C0E0020BD
:1050B000ED50000870B50A4C002322681946821A88
:1050C0001144084D01F4E062160A55F82660064DB9
:1050D00045F823600133102BF1D1226070BD00BF71
:1050E000380E002008000020380D002070B50B4D50
:1050F0000B4C2B6822685E1C32F813002E6080B2C5
:10510000FFF7D8FF3F2E07D9002322682B60054BFD
:105110009A4208BF044B236070BD00BF340D0020CD
:10512000A00E00202C0F0020AC0E002073B5FFF75E
:105130005BFF2020002104F08FF90620002104F0FD
:105140008BF92B484FF4E13104F05EFA29492848E5
:1051500004F013F9642004F0EFFA274A274B4FF4C8
:105160007A751A60264A274B1A60FFF765FFFEF72B
:10517000E7FF04460020FFF79DFF013DFAD1FEF74F
:10518000DFFF0646341B2049194804F0E5F82146A4
:105190000A22174804F03DF91C49154804F0DCF8D0
:1051A0001B490126B1FBF4F11A4C0A22104804F005
:1051B00030F9FFF75BFF3C22334602210096204680
:1051C00000F0ACFD204600F09BFD2046294600F093
:1051D00033FC1023E682A6822582638220460E4994
:1051E00004F0BAF8204602B0BDE8704001F024B8DF
:1051F000301600208EB70008AC0E0020A00E002054
:105200002C0F0020A80E0020BCB70008E4B700084F
:1052100000CA9A3B400E002013B8000838B500249D
:10522000044B1D68FFF700FF80B228530234802C26
:10523000F6D138BDA80E0020044A054B116819604C
:10524000186811688842FBD0FFF7E8BFA00E002065
:10525000A80E00201FB5094A094B4FF0FF318DE819
:105260000E00084880212022074B00F04DFC074823
:10527000022105B05DF804EB03F0C2BF801A0600FE
:10528000A0860100400E0020241200203C0E0020C9
:10529000014800F05FBC00BF400E00202DE9F74F31
:1052A0001E46BDF930301546C2EB0309721AB9F13A
:1052B000000FB8BFC9F10009002AB8BF524291459A
:1052C000D4BF4FF000094FF0010980460C46BDF8ED
:1052D00034B0B9F1000F04D032462C461E460D46BC
:1052E0001346B44205DD2A461D461346224634467F
:1052F0001646C4EB060A5A1B1FFA8AFA82EAE271C2
:10530000A1EBE2710FFA8AF7022297FBF2F74FF650
:10531000FF729D42B8BF01220091BFB20192B44218
:105320001DDCD8F800304046D3F814C0B9F1000FA6
:1053300002D02946224601E021462A465B46E04744
:10534000009ABF1ABBB29FB23A0405D5019903EB8C
:105350000A070D442DB2BFB2013424B2DFE703B017
:10536000BDE8F08F704710B50468E468A04710BD31
:1053700037B5BDF8185004680095646BA04703B0BA
:1053800030BD37B5BDF8185004680095A46BA04730
:1053900003B030BD37B5BDF9185004680095BDF8AD
:1053A0001C500195E46BA04703B030BD7047F7B5C2
:1053B000154602681E46013E136904460F462E44F8
:1053C0009847BDF82030226836B201930096566A9D
:1053D000204639462A463B46B047236820469B6A0A
:1053E000984703B0F0BDF7B5154602681F4613692C
:1053F00004460E469847BDF8201022687B1E019196
:1054000000953344576A204631462A461BB2B847B6
:10541000236820469B6A984703B0F0BD2DE9F34707
:105420001F4603680E461B6904469046BDF9289046
:10543000BDF82CA098473546F3199D4221680BDA38
:10544000CDF800A0D1F81CC02046294642464B4664
:105450000135E0472DB2EFE78B6A2046984702B04E
:10546000BDE8F08713B5B0F90E20046800920191F1
:105470000021B0F90C30E46B0A46A04702B010BD21
:105480002DE9F7439942144606460D461F46BDF9DD
:105490002880BDF82C9002680CD1444502DD2346DB
:1054A0004446984608F10108CDF80090C4EB080383
:1054B000576B0AE044450ED1994201DD3D460F4647
:1054C0000137CDF800907B1B976B3046294622466A
:1054D0001BB2B8470FE0136998478DE800033368A3
:1054E0003046D3F824C029463B462246E04733687D
:1054F00030469B6A984703B0BDE8F0832DE9F74337
:10550000994603680446BDF82C601B690F46154692
:10551000BDF92880984723680096D3F820C020461C
:1055200039462A464B46E047236808F1FF32009689
:105530002A44D3F820C0204639464B4612B2E047F1
:1055400023680096D3F81CC0204639462A464346B5
:10555000E04709F1FF392368009609EB0701DE698E
:10556000204609B22A464346B047236820469B6A34
:10557000984703B0BDE8F083704701F003010129AB
:1055800081760389428904D0032902D08381C281B4
:1055900070478281C381704730B50B4D0024018173
:1055A00042818181C2814FF6FF7101224460056012
:1055B00084760482448242760276C1828182C276F7
:1055C0000477046230BD00BFC8C600082DE9F04F63
:1055D00087B09B46BDF8483092460593BDF94420FC
:1055E0000368BDF9409004921B69039104469847F3
:1055F00009F107020823002592FBF3F301932F46DC
:105600002E4607EB0A039BB2049A02933BB29342E5
:1056100021DA4FF000081FFA88F10BB24B4516DA79
:105620004A070BBF0BEBE30376005E5DF6B2330671
:105630000AD52368039AD3F814C0029B114420466C
:105640001AB209B2059BE04708F10108E3E7019AA5
:1056500001371544D5E7236820469B6A984707B071
:10566000BDE8F08F2DE9F04F044691B09946BDF8A2
:105670006800236A059117460490BDF86C809DF878
:1056800070509DF87460002B40F0B880B4F90C3075
:105690008B4240F34281B4F90E30934240F33D8196
:1056A000062303FB0513002B40F3378102EBC603EF
:1056B000002B40F33281237F33B9B9F1AF0F84BFA0
:1056C00009F101095FFA89F9236820461B699847A7
:1056D00009EB890905210022CDF824900791039256
:1056E000039B09984FFA83FB8D4B0599034413F8EC
:1056F0000B301FFA81FA1FFA8BFB029305FB0BA3F9
:1057000008229BB2069308924FF00009029BDA0729
:1057100018D5012D23680DD1012E0BD14FFA89F236
:105720000BEB0A013A44D3F814C0204609B212B276
:10573000049B1AE004984FFA89F202FB0672009665
:1057400001901AE0049880451FD0012D23680ED1E6
:10575000012E0CD14FFA89F20BEB0A013A44D3F82F
:1057600014C0204609B212B24346E0470DE04FFA9A
:1057700089F202FB06728DE84001D3F818C0069B3F
:10578000204619B212B22B46E047089902984B1EE8
:1057900009F10109400813F0FF035FFA89F902904B
:1057A0000893B3D1039A0798531CDBB20393431EAB
:1057B00013F0FF03079393D10499884500F0A98063
:1057C000012D23680CD1012E0AD10AF10501CDF873
:1057D0000080DD69204609B23A460823A84798E0D0
:1057E000F6008DE8400105EB85020AEB02019E6997
:1057F000204609B23A462B46B0478AE01A7A5968E1
:10580000C2EB09095FFA89F901EBC9021B6831F89B
:105810003910D0780C930291937851799279012DB7
:1058200007930D900891099201D8012E08D9089A82
:10583000099853B29BB2069343B29BB2039302E022
:10584000002103910691236820461B6998474FF079
:105850000008C346C2460D995FFA88F38B4258D2BE
:1058600003981FFA88F3BAB20B93034403FB062391
:105870009BB20F930A925B464FF00009079881454F
:1058800041D25A1CD2B25B070E9206D1029A0C98F2
:10589000531C9BB210F802A002931AF0800F28D07C
:1058A000012D236814D1012E12D1089A059851B206
:1058B00001440998494442B20A98D3F814C00244FA
:1058C0000B9809B2024412B22046049BE04710E054
:1058D000069A059811B24944049A01FB0501019208
:1058E0000096D3F818C00F9B20461AB209B22B4677
:1058F000E0474FEA4A0A09F101095FFA8AFA5FFABA
:1059000089F90E9BBAE783445FFA8BFB08F1010823
:10591000A1E7236820469B6A984711B0BDE8F08F45
:1059200018C70008F0B5026A85B004460B46002A85
:105930002FD10A2905D10282438A427E03EBC2039A
:1059400030E00D296CD0C17E257E407E69B1B4F96E
:105950001010062606FB0516B4F90C108E4204DD65
:105960002282628A02EBC0026282A68AB4F9122005
:105970000096E68A0390B4F910100196029520462D
:10598000FFF770FE237E228A03EB430302EB4303FF
:1059900045E00A2908D100230382917A437E428A96
:1059A00001FB032363823BE00D2939D0157AA9421C
:1059B00036D3517A994233D351685D1BEDB201EB76
:1059C000C505A978E87829B320B3E77E95F805E006
:1059D000607E267E8FB1B4F910704FFA8EFE71444E
:1059E00001FB0671B4F90C70B94206DD0021218279
:1059F000917A628A01FB00226282A78A0390009753
:105A0000E78AB4F91010B4F91220019702962046E3
:105A1000FFF728FE2979237E228A01FB03232382B4
:105A2000012005B0F0BD002908BF0121002A08BFF0
:105A300001220176427670470A46FFF7F4BF00293B
:105A400030B560DBB0F90C408C425CDD002A5ADBDB
:105A5000B0F90E40944200DC30BD847E022C03D1AC
:105A60000489013C611A06E0032C40D1514089B2FF
:105A70004A4092B25140448909B2013CA21A12B282
:105A8000012B03D011D3022B20D030BD082492FB70
:105A9000F4F402F007029340B0F90850C06A05FB25
:105AA0000411425C1343435430BDB0F9084008234D
:105AB00092FBF3F304FB031102F00702C36A012017
:105AC00000FA02F2585C20EA02020EE0B0F9084047
:105AD000082392FBF3F304FB031102F00702C36AED
:105AE000012000FA02F2585C42405A5430BD012CA9
:105AF000C6D151408CB26240018912B20139544082
:105B0000091B09B2BCE730BD38B504461D46FFF796
:105B100043FD0E4B0E4A236000239D4208BF1546ED
:105B20006362E362FF2384F8333084F8343084F80E
:105B3000353084F836309DF91030A56284F837305E
:105B4000059B2046A365069BE36538BD38CC00085D
:105B500024120020054B10B504460360C06A18B13A
:105B600004F092F90023E362204610BD38CC00080F
:105B7000F8B50446806A0E4680B194F9301000F002
:105B800081FCA06A002100F09AFCA06A314600F076
:105B900096FCA06ABDE8F84000F08EBC236C226D34
:105BA000186820EA0202606A1A60D0B9E36B082024
:105BB0008025A26BA16C1768354214BF394327EAD0
:105BC000010111601968E26C013841EA02021A60B1
:105BD0001968E26C4FEA550521EA02021A60E8D121
:105BE000F8BDBDE8F84000F075BD38B50446806AE0
:105BF0000D4618B1A16D00F00DFC05E0636C626DFF
:105C0000196821EA02021A60002D20460CBFA62165
:105C1000A721FFF7ADFFA06A20B1E16DBDE83840D4
:105C200000F0F8BB636C626D19680A431A6038BDF6
:105C30002DE9F8430446806A8846174648B394F92C
:105C4000301000F01FFCA06A002100F038FC002595
:105C50000126EBB29F4217D01F2E0CD9A06A00F08C
:105C60002BFCA06A94F9301000F00CFCA06A002113
:105C700000F025FC012618F80510A06A013600F096
:105C80001EFCF6B20135E4E7A06ABDE8F84300F077
:105C900013BC236C226D1968054621EA02021A60C2
:105CA000EBB29F422AD0606A18F8051010B100F0DC
:105CB00011FD21E0E36B08228026A06BD4F848C0D8
:105CC000D0F800900E4214BF49EA0C0C29EA0C0CE3
:105CD000C0F800C0D3F800C0E06C013A4CEA000CF8
:105CE000C3F800C0D3F800C0E06C4FEA56062CEAB7
:105CF000000CC3F800C0E0D10135D1E7BDE8F8835E
:105D0000B0F90A20B0F908300821073292FBF1F20D
:105D1000C06A00215A4304F08FBB00002DE9F04314
:105D20009946C36A85B004460D4616469DF83080F4
:105D300073B9B0F90830B0F90A000822073090FBB7
:105D4000F2F0584304F098F8E062002800F02F8148
:105D50002046FFF7D5FFB4F90A30B4F90820202B0C
:105D60004FF0020011DD523A403B92FBF0F14FF050
:105D7000400C93FBF0F24FF0010E52238DE80850D7
:105D8000204609B212B28B4B0EE0733A203B92FBD5
:105D9000F0F1012793FBF0F2732020238DE88900B6
:105DA000854B204609B212B2FFF710FC84F831503F
:105DB000A56A9DB10EB1F6B205E0B4F90A30202B08
:105DC00014BF3D263C2684F83060B8F1000F5CD04B
:105DD0002B6828469B680021984756E0294694F88E
:105DE000350003F039FB294694F8360003F034FB04
:105DF00094F93530714D1B01EA18EB5801261B68E8
:105E0000676A0C332364137B06FA03F3236594F962
:105E100036301B01EA18EB581B6803F10C01616472
:105E2000127B06FA02F26265D9680A43DA6037B17A
:105E3000B8F1000F29D0384600F03AFC25E094F87C
:105E40003300394603F008FB394694F8340003F078
:105E500003FB94F933301B01EA18EB581B680C3331
:105E6000A363137B06FA03F3A36494F934301B0194
:105E7000EA18EB581B6803F10C01E163127B9640B2
:105E8000E664DA6822EA0606DE60B9F1000F1BD08C
:105E900094F83700030617D4002103F0DDFA01213E
:105EA00094F8370003F018FC012003F045FC0021B2
:105EB00094F8370003F010FC0A2003F03DFC94F83E
:105EC0003700012103F008FCA06A18B1A16D00F0B1
:105ED000A1FA05E0636C626D196821EA02021A609A
:105EE000042220463649FFF7A3FEA17A2046013955
:105EF000C9B2FFF73DFE042220463249FFF798FE63
:105F000094F931302046012B14BF14211021FFF7E2
:105F10002FFE042220462C49FFF78AFEA3682B4A55
:105F2000934205D120462A490422FFF781FE20E052
:105F3000284A93420CD1204627490322FFF778FED6
:105F400094F931302046012B14BFCF219F210EE060
:105F5000224A93420DD1204621490322FFF768FED1
:105F600094F931302046012B14BFAF211021FFF7E7
:105F7000FFFD2046D921FFF7FBFD94F93130204683
:105F8000012B14BFF1212221FFF7F2FD2046154914
:105F90000622FFF74DFEA06A18B1E16D00F03AFA53
:105FA00004E0636C626D19680A431A60012005B051
:105FB000BDE8F08381CE00088FCC000878D10008BE
:105FC0006FCE000873CE000877CE00088000200056
:105FD00088CC0008800040008CCC000860001000D5
:105FE00041D100087BCE0008F0B5002ABDF814406E
:105FF00047DBB0F90A50954243DD002902DA0B4431
:106000001BB200210689CF1835B2AF42C4BFC1EB25
:1060100006031BB2002B34DD082692FBF6F605FBC7
:106020000611C06A02F007020144012000FA02F2E0
:106030008442D2B203D00DD3022C18D0F0BD013B64
:106040001BB25D1C05D011F8010B104301F8010CC7
:10605000F5E7F0BDD243D2B2013B1BB25C1C05D0C8
:1060600011F8010B104001F8010CF5E7F0BD013B00
:106070001BB2581C05D011F8010B504001F8010C5F
:10608000F5E7F0BD2DE9F0410029BDF818607BDB94
:10609000B0F90840A14277DA002A02DA13441BB2B1
:1060A0000022458902EB030C2FB2BC45C4BFC2EBF2
:1060B00005031BB2002B67DDD2B2D50804FB051126
:1060C000C56A12F00702DBB205EB010427D0C2F16A
:1060D0000802D2B22D4F9342BF5C07D2C3EB020C31
:1060E0004FF0FF0848FA0CFC0CEA0707012E07D016
:1060F0000BD3022E0ED115F801C087EA0C0708E079
:1061000015F801C047EA0C0703E015F801C02CEAB6
:1061100007076F549342018936D309B20C449B1A86
:10612000DBB2072B1CD9022E0BD11A462178083A74
:10613000C9432170B0F90810D2B2072A0C44F5D82F
:106140000CE0002E14BFFF2500251A462570083AE2
:10615000B0F90810D2B2072A0C44F7D803F00703AD
:1061600093B10B4A012ED35C04D006D3022E08D083
:10617000BDE8F0812278134305E0227822EA030388
:1061800001E0227853402370BDE8F08125CC00085F
:1061900018CC000830B5847EBDF80C50022C09D014
:1061A000032C10D0012C19D10C46018901398A1A0F
:1061B00012B20CE04489013CA21A048912B2E41A1A
:1061C000611A09B20AE04489E41A611A0CB2039513
:1061D00011462246BDE83040FFF754BF0395BDE8A5
:1061E0003040FFF701BF30B5847EBDF80C50022C63
:1061F00009D0032C10D0012C19D10C460189C91AE1
:106200008A1A12B20CE00489013C611A448909B26D
:10621000E41AA21A12B20AE04489013C611A0CB2D3
:10622000039511462246BDE83040FFF7DDBE0395D9
:10623000BDE83040FFF726BF2DE9F8430446806AE9
:1062400018B1A16D00F0E6F805E0636C626D1968A5
:1062500021EA02021A60204640490522FFF7E8FCC5
:10626000217A20460139C9B2FFF782FCB4F90A70DD
:106270000823073797FBF3F72389A06A5F43D4F815
:106280002C80BFB240B394F9301000F0FBF8A06A44
:10629000402100F014F900250126ABB29F4217D02F
:1062A0001F2E0CD9A06A00F007F9A06A94F93010EB
:1062B00000F0E8F8A06A402100F001F9012618F882
:1062C0000510A06A013600F0FAF8F6B20135E4E7ED
:1062D000A06A00F0F1F833E0236C226D19680546DE
:1062E0000A431A60ABB29F422AD0606A18F80510C0
:1062F00010B100F0EFF921E0E36B08208026A26BDB
:10630000D4F848C0D2F800900E4214BF49EA0C0CF1
:1063100029EA0C0CC2F800C0D3F800C0E26C0138C6
:106320004CEA020CC3F800C0D3F800C0E26C4FEA9C
:1063300056062CEA020CC3F800C0E0D10135D1E7C3
:10634000A06A20B1E16DBDE8F84300F063B8636C6A
:10635000626D19680A431A60BDE8F88320CC000812
:1063600008B5036801211B68984708BD034693F8E8
:106370005810406DDA6D01F085B803685A6822F450
:10638000E0625A601A6822F001021A60002380F865
:106390002330704710B50446406DFFF7EEFF002331
:1063A000636510BD38B504460023406D211D0122F0
:1063B00000F0BEFDC5B26BB2013316D1606D8368CB
:1063C0005A0505D513F0020F0CBF0325022504E082
:1063D00013F4006F0CBF04250125FFF7CEFF606D9D
:1063E00094F85810E26D01F04DF8284638BD0000D1
:1063F000064B10B504460360406DFFF7BEFF002357
:106400006365034B2046236010BD00BF50D10008D8
:1064100068D1000810B50446406D03681B68DB07AF
:106420000AD5E165FFF7A9FF606D94F85810E26D99
:10643000BDE8104001F026B810BD0000054B064A2B
:106440001A60064A12685A65002283F85820044AE6
:10645000DA6570472412002050D10008ACD3000840
:10646000A08601000148FFF7C3BF00BF241200202F
:10647000002380F8523080F8533080F8303080F8B4
:106480003130704790F85230C9B203443233C360A0
:10649000002381800381C380704738B590F8535042
:1064A00004463DB903681B68984784F8525084F845
:1064B000535038BD012038BD0121FFF7EEBF90F8E1
:1064C0005230202B04D1012380F853300020704734
:1064D0005A1C034480F8522083F832100389013398
:1064E00003810120704703689A689107FCD59A6878
:1064F0001206FCD470470346406818B1597B00224D
:1065000001F082BB70470000162804D0172803480A
:1065100018BF002070470248704700BFF4D400083D
:10652000F0D400082DE9F04F054687B000798A467F
:10653000FFF7EAFF002831D090F80090194C90F84E
:1065400001B04FEA091909EB040287784FEA0B1BE7
:10655000C6780BEB04081046059204EB0717FFF70B
:10656000CAFF4046FFF7C7FF04EB06163846FFF7A1
:10657000C2FF3046FFF7BFFF059A2846137B5BF842
:1065800004205146009298F80C2001923A7B029226
:10659000327B039259F8042001F0D3F907B0BDE82B
:1065A000F08F00BF78D1000810B50C4601F0EEF86E
:1065B000012803D02CBF0022074A00E0074A5208F6
:1065C0000023944204D20133072B4FEA5202F8D140
:1065D000034A1344187A10BD0051250200A24A0450
:1065E000F0D4000870B5002304460122C3610362A1
:1065F0002273637363602364636484F8302084F8D7
:1066000031302422A3624B1E02FB034319480129A7
:1066100020606062A364184A184E05D0022907D191
:1066200031681961164B02E011681961154B1C6045
:106630001368104923611879FFF7B6FF124DA06067
:106640002B68616AA3610323637502232375336892
:1066500063631879FFF7A8FF2B680022E363052323
:1066600084F83930042384F83830A36CE062DA739C
:10667000204670BD00093D009C010020A0010020C3
:106680008412002088120020D8000020826C10B5EF
:10669000137B5168012B41F4407414BF8023002305
:1066A0001069117A2343527BBDE8104001F043B9D1
:1066B000836C10B50446186901F013F9A36C01212D
:1066C0001869FFF72FFF2046FFF7E0FFA36C0122B8
:1066D000DA7310BD836C10B51C6923682046DA6834
:1066E000D960FFF700FF2368D868C0B210BD000072
:1066F00001480121FFF776BF8C12002001498D4629
:1067000001490847005000200D67000808B5104BEC
:10671000104A1968914201D0002301E00E4B07E0B6
:106720000E48D4188442F9D2C858D0500433F7E741
:106730000B4A934203D2002243F8042BF8E703F0FC
:1067400073FB00200146024602F075FEFEE700BF23
:1067500000D5000800000020180D0020180D0020B2
:10676000C016002008B50D4B1A680AB90C4A1A6009
:106770001B680C4AD21A824204DB09494242591A68
:10678000914206DA03F04AFB0C2303604FF0FF301E
:1067900008BD024A18441060184608BDD8120020EF
:1067A000C0160020F005012802F04CBE0B4B10B5BE
:1067B000196809220A230A4802F006FD094B022241
:1067C00019680948032302F0FFFCBDE81040074B9D
:1067D000074819681A221B2302F0F6BC3802002071
:1067E000DC1200203C020020F412002040020020B5
:1067F0000C13002010B5044600F0AAF9034B204604
:106800001978BDE8104000F03FB900BF64000020D7
:10681000F8B50446056801F049F9226800235101E2
:1068200001F184410B60802129600121A9622B6163
:10683000EB606379696113B18B4203D02BE04FF4B5
:1068400000436B644FF6FF73D36200256E1CF7B2F2
:106850002046394601F034F9D0B1236848F6FF717B
:1068600003F1340242F8251018336D1017F0010FB0
:1068700053F8252014BF6FF0FF016FF47F4101EA48
:10688000020214BF68214FF4D0410A4343F8252087
:10689000042E3546DAD1216801224B01490103F16A
:1068A000844301F18441C3F880220A60F8BD0000EE
:1068B00038B5264B264C1A68022042F010021A60A6
:1068C00000F0FCF90025002000F076FF65602368E9
:1068D000182023F40023236000F07BFF102000F039
:1068E00078FF00F043F8A560102000F065FF10204D
:1068F00000F07DFF0028FAD000F039F8154800F0CC
:1069000083FF182000F058FF182000F070FF0028C7
:10691000FAD0022000F040FF00210F4800F010FFE5
:106920000E4801F03BF800F039F80D4B188800F0E4
:10693000FDF80C4800F0FEF80B4801F0A3F800F059
:106940002FF800F057F8FFF72FFF38BD0020024066
:106950000010024068000020004000083F190100BC
:1069600066000020F567000811680008704708B548
:106970000020014600F086FF01204FF4806100F006
:1069800081FF0021022000F07DFF2D2000F08AFF12
:10699000BDE808400320002100F074BF00F098B962
:1069A00013B5124C0322D4F8C00094F8CC1000F0B8
:1069B000A7F994F8CC204FF4803101FA02F2D4F810
:1069C000C00003681A6100230193019BB3F5007FA7
:1069D00002D2019B0133F7E794F8CC10042200F0B7
:1069E0008FF9034802F0F6FD02B010BD78D100081F
:1069F0003016002000F0ACB90000000000000000DC
:106A0000012007E0022005E0032003E0042001E06C
:106A10000520FFE70D4A0121116072B60C4A0021E2
:106A20001160074902B4084902B486B005498E4690
:106A3000704700BFAFF30080AFF30080AFF300807A
:106A400000000061F9FFFFFFF190000814ED00E085
:106A500010E000E0AFF30080AFF30080AFF3008000
:106A6000FEE710B50446007900F0DAFE2079BDE8B3
:106A7000104000F0EDBE03689A6822F4602242F4F0
:106A80008012114399607047002370B51A461C4666
:106A9000072B4FEA430503DCEE1801FA06F63443F0
:106AA0001D4401FA05F501330A2B42EA0502EFD134
:106AB0000368DC601A6170BD38B5124D2A6813682E
:106AC0001C68A10706D5196821F0020119609368B6
:106AD00003B19847620708D52B681A681B691168CB
:106AE00021F00401116003B19847E30708D52B6832
:106AF0001A68DB68116821F00101116003B1984741
:106B000038BD00BF94000020036801225B0103F13F
:106B1000844303F58673191F1A6018680028FCD196
:106B200043F8042C0B68002BFCD17047014604206D
:106B300000F0A8BE044B10B504461868A047034BEC
:106B40001868A04710BD00BF9400002090000020EE
:106B500010B50446FFF785FF20464FF46021FFF78C
:106B60008AFF2368012103F1404308335A015B0186
:106B700002F1844203F18443116520461960BDE8A7
:106B80001040FFF7C1BF38B550F8313004464D1EF4
:106B900033B19847AA00012101FA02F223685A6032
:106BA00038BD0000024B01211868FFF7ECBF00BFA1
:106BB000D8000020024B02211868FFF7E4BF00BF95
:106BC000D8000020024B03211868FFF7DCBF00BF8C
:106BD000D8000020024B04211868FFF7D4BF00BF83
:106BE000D8000020024B05211868FFF7CCBF00BF7A
:106BF000D8000020024B06211868FFF7C4BF00BF71
:106C0000D8000020024B07211868FFF7BCBF00BF67
:106C1000D8000020084A10B552F83030044653B16D
:106C200002EBC00250689847012303FA04F4034BB7
:106C30005C6100BF00BF10BD2413002000040140B0
:106C4000104B2DE9F047104DD3F8149004468A46B6
:106C500005EBC0050026984654450CD80127A740EF
:106C600017EA090F04D02B6813B1686898473E43B0
:106C700001340835F0E7C8F8146000BF00BFBDE874
:106C8000F08700BF00040140241300200020FFF71C
:106C9000C1BF0120FFF7BEBF0220FFF7BBBF03202B
:106CA000FFF7B8BF0420FFF7B5BF05200921FFF7A4
:106CB000C7BF0A200F21FFF7C3BF0000034B1A68AC
:106CC00022F0070210431860704700BF0020024006
:106CD00008B5074802F069FD064802F066FD06485F
:106CE00002F063FDBDE80840044802F05EBD00BF4D
:106CF000DC000020E4000020EC000020F400002074
:106D000070B501F00704A4000F25A5400368C8086A
:106D100053F82060092A26EA050514BF16460826FE
:106D200006FA04F4082A44EA050443F8204006D190
:106D3000012000FA01F1DA6822EA010106E0092ADD
:106D400005D1012000FA01F1DA681143D96070BD64
:106D500008B5032000F064FDBDE80840032000F002
:106D600077BD00000028064B05DA9A6920F0004044
:106D70001043986170475A6810435860704700BFCD
:106D800000000140002808DB4211012300F01F0031
:106D900003FA00F0014B43F82200704700E100E0E5
:106DA00003685A6822EA0101596070477723184640
:106DB0000138FDD8704738B5044600F069FC2368F7
:106DC0001A6842F400421A6023690BB9626900E054
:106DD0001A46126801219068A27F01FA02F202426B
:106DE00021D1E27F91400BB9A26900E01A461268F6
:106DF00092681142F7D0FFF7D9FF236903B9A3695D
:106E0000E27F012505FA02F21B6812041A61FFF7FE
:106E1000CDFF236903B9A369E27F1B6895401D611B
:106E2000FFF7C4FFD0E703B963691B6812041A6156
:106E3000FFF7BCFF236903B9A369E27F012505FAC7
:106E400002F21B6812041A61FFF7B0FF236903B94D
:106E5000A369E27F1B6895401D61FFF7A7FF2369C7
:106E600003B96369A27F012101FA02F21B681A616A
:106E7000236800221A6038BD10B5044690F820003F
:106E800000F0CEFC94F8200000F0E2FC2046BDE8C3
:106E9000104000F03BBC000073B504460E4615469A
:106EA00094F821305AB2002A09DB012103F01F03B4
:106EB00001FA03F352111C49203241F8223094F8B0
:106EC000223058B2002809DB012203F01F0302FA26
:106ED00003F34111144A203142F8213094F8233051
:106EE000DBB28DF80330E3680193FFF74BFF94F9B1
:106EF0002100FFF747FF9DF8030040B2431C10D06C
:106F00009DF803305BB2B3420AD0002DC8D0074BC6
:106F10001A68019BD31AAB42C2D96FF0010000E09E
:106F2000002002B070BD00BF00E100E07816002034
:106F3000F8B504461046002A47D0244E013E40D002
:106F40002568AF6917F00207F8D1A7606160A083D8
:106F50000C2202FB00120138002680B222F8066CD7
:106F60000028F5D11A4A1268E260032284F823202F
:106F700001222A6068616A68204642F440726A60B1
:106F80004A880221D2074CBF40F2015240F201125E
:106F90002A601A46FFF780FF4FF4E061054620465D
:106FA000FFF7FEFE4DB1FF2384F82330AB1C0BD15D
:106FB000A36843F48043A36006E0012384F82330F0
:106FC00002E06FF00100F8BD2846F8BD411901004C
:106FD00078160020F0B5036885B01A680025019284
:106FE0005A69044602928B4A03951268C260426A4B
:106FF000960600F1C6804268002A00F0D5815188CB
:107000009588C8077ED50299C90704D51288520011
:1070100042F0010280E002998F072AD5012D019AE2
:107020000EDC22F4806201921A609A690392019A3E
:1070300042F4007201921A60002D00F0928113E078
:10704000022D0BD142F4006201921A609A690392F8
:10705000019A22F4806201921A6005E042F4806293
:1070600001921A609A6903925A6842F480625A60E7
:107070009AE1029802994606C1F380011AD5E1B956
:10708000032D01DC012D09D1D1881B6990684E1CAC
:10709000D68043549388013B938007E0AB1E012BBD
:1070A00004D820464FF48061FFF77AFE012D00F3EB
:1070B0007B8156E1002900F07781032D03D10199EE
:1070C00021F4806104E0022D04D1019941F40071A2
:1070D00001911960D1881B6990684E1CD680435479
:1070E0009388022D03F1FF33938040F05D81D388B4
:1070F0009168581CD08020680069C8549388013B6F
:1071000093802EE10298C00708D51DB1596841F45B
:1071100080615960128852001A6145E10298870720
:1071200044BF986903900298029EC0F3C01076078E
:1071300004D4D5F1010638BF002600E00126F6B2DE
:1071400018B9002E40F02C812EE175B1D1889668D7
:107150004F1CD780715C013D19619580002800F0BB
:107160002381002D40F02081A3E0002E00F01C813F
:107170004A0700F1F680019A42F4007201921A6007
:10718000EFE0029A970747D59A6985600392039AC0
:10719000D60619D4039A12F0800F9A680CD0100406
:1071A00008D59A68DD6840F2013305F0FE0513400A
:1071B0001D4309E0DD6805E011049D6802D5C5F3B3
:1071C000090501E0C5F34605039B606B13F004035A
:1071D00014D038B1C3882BB1E36A03B19847636B0D
:1071E0000022DA80206B60B1A36A002205808280D1
:1071F000154603B19847236BDD8002E008B1058096
:10720000C38023685A6842F480625A60032384F87A
:107210002330C9E078160020029AD20615D59B6962
:10722000406B039338B1C3882BB1E36A03B198472D
:10723000636B0022DA8023681968019A42F4806245
:1072400001920A431A600123E1E70298029DC0F30C
:10725000800015F0800518BF5D689A6918BFC5F3F6
:1072600080250392039A12F0040228D0226B1AB1EF
:107270009688D188711A00E0114605F0FF0615B90D
:10728000002800F0918000208DF802003AB131B161
:10729000D0889568471CD7802A5C8DF802209DF81D
:1072A0000220D2B21A61002977D0002E7CD00129A9
:1072B0007AD120464FF48061FFF772FD74E08DF8BB
:1072C0000320029D626B15F040051CBF5D68C5F38D
:1072D0008025EDB21AB19688D188711A00E0114666
:1072E0008DB190B90029E4DD1B699068DBB28DF89F
:1072F0000330D388032903F10105D5809DF80320CD
:10730000C25451DCD5E700284ED0032903D101989F
:1073100020F4806004E0022904D1019840F4007058
:10732000019018601B690029DBB28DF8033006DD7F
:10733000D38890685E1CD6809DF80320C254002D2F
:1073400032D0236801291B69DBB28DF80330B0DD30
:10735000636BDA889968501CD8809DF803308B5491
:10736000A7E7A38B013B9BB2A3839BB120464FF4BD
:107370008061FFF715FD636803F10C02DB89626031
:1073800013F0010F236814BF40F2015240F20112C2
:107390001A6009E06360022339E7002E89D103E017
:1073A000002D7FF4D3AEE3E605B0F0BD13B503685E
:1073B00004465A6900929A6901921C4A1268C26096
:1073C000009A02F470628260426A92061CD54FF401
:1073D0008061FFF7E5FC23681A6842F480621A6056
:1073E000009A510517D5606B6FF480625A6138B10D
:1073F000C3882BB1E36A03B19847636B0022DA803C
:10740000012384F823300EE0009A520503D51A6850
:1074100042F400721A60236800225A619A61FF23C5
:1074200084F82330019B02B010BD00BF7816002005
:10743000036858682420586010488242104810D9C8
:10744000890706D519214A43B0FBF2F242F44042C3
:1074500005E002EB4202B0FBF2F242F400420B21E3
:1074600003E05200B0FBF2F22521C2F30B0008B991
:1074700042F00102DA611962704700BFA086010084
:10748000005125026B4B70B51B68044698420D46AF
:10749000164608D14A0706D50220FFF763FC0923E8
:1074A000A3770823E3772046FFF7E6FC20464FF456
:1074B000E061FFF775FC23681A6822F001021A6088
:1074C000002384F823302B0704D52046FFF773FCF4
:1074D00025F00805E8057FD5236820461A6822F0C4
:1074E00001021A6000F0D4F8E27F01219140236983
:1074F0000BB9A26900E01A46126892681142F7D0EF
:10750000A27F012101FA02F20BB9616900E019467C
:10751000096889680A42F7D00BB9616900E0194629
:10752000096812040A61A27F012191400BB96269C6
:1075300000E01A46126892681142F7D10BB9A269AD
:1075400000E01A46E07F1168012202FA00F0000410
:107550000861E17F8A400BB9A16900E0194609681A
:1075600089680A42F7D10BB9A16900E01946096898
:107570000A61E27F012191400BB9A26900E01A463D
:10758000126892681142F7D00BB9626900E01A469E
:10759000A07F012101FA00F012681061A07F01FABA
:1075A00000F00BB9616900E019460A689268104260
:1075B000F7D0204600F040F8236825F480751A685B
:1075C00042F400421A60FFF7F1FB23681A6822F4C4
:1075D00000421A60FFF7EAFB204600F02DF829462A
:1075E00032462046FFF724FF94F92100FFF7CAFB3B
:1075F00094F92200FFF7C6FB2368A9061A686562A2
:1076000042F001021A6011D52A0603D51A6842F029
:1076100040021A601A6822F400621A601A6842F482
:1076200080621A605A6842F440725A60012384F8FA
:10763000233070BDACD3000890F8203010B5122B69
:10764000044611D103690BB9826900E01A46127928
:107650000C2A09D103B963691B790C2B04D1E28B85
:1076600040F609039A420FD0206900B96069A17FF2
:107670000F22FFF745FB206900B9A069E17F0F22C7
:10768000BDE81040FFF73CBB0220FFF76BFBEBE7C8
:1076900038B50446006908B9A36900E00346E17FF4
:1076A0001A68012303FA01F11D46116108B96369E3
:1076B00000E00346A17F1A6805FA01F3136100B9DF
:1076C000A069E17F0722FFF71BFB206900B9606911
:1076D000A17F0722BDE83840FFF712BB0148FFF742
:1076E00079BC00BFFC0000200148FFF773BC00BF5D
:1076F000340100200148FFF759BE00BFFC00002004
:107700000148FFF753BE00BF3401002090F921006B
:10771000002100F001B8000000284FEA011105DA4D
:10772000064B00F00F00C9B21954704700F16040D9
:10773000C9B200F5614080F80013704714ED00E015
:1077400021F0604138B521F07F01084B0843986073
:1077500000241D4660B20F210134FFF7DDFF2B2C02
:10776000F8D1F02385F8233038BD00BF00ED00E0EC
:10777000044A054BD16801F4E0610B43D360BFF3C9
:107780004F8FFEE700ED00E00400FA05014B13F80F
:1077900010007047B0D30008064B5A6822F003026D
:1077A00002435A6080005A6802F00C028242FAD109
:1077B000704700BF00100240030A0121C0B201FA65
:1077C00000F003F1804303F504331A681043186096
:1077D0007047030A0121C0B201FA00F003F18043AF
:1077E00003F504331A6822EA000018607047030AA0
:1077F0000222C0B202FA00F003F1804303F5043321
:107800001B68184070470000044B05C8596812688F
:1078100021F4741102430A435A6070470010024079
:1078200010B50446FFF7B2FF074B53F82020074B73
:1078300003EB4404637803EBC2039B0003F184432E
:1078400001221A6010BD00BF6C010020B0D30008F7
:1078500010B50446FFF79AFF084B53F82020084B59
:1078600003EB4404637803EBC2039B0003F18443FE
:1078700001221A6000221A6010BD00BF78010020AA
:10788000B0D3000810B5054B054C5A6854F82000D9
:1078900022EA00021143596010BD00BF00100240EF
:1078A0000CD4000810B50446FFF770FF074B53F8DF
:1078B0002020074B03EB4404637803EBC2039B00D7
:1078C00003F1844300221A6010BD00BF8001002034
:1078D000B0D3000801EBC0018B0003F184431A60B0
:1078E000704710B504460079FFF79AFF2079BDE88C
:1078F0001040FFF7ADBF006806210122FFF7EABF85
:10790000006806210022FFF7E5BF38B5036804468A
:107910005A680D4622F0E0025A601B684B4013F48F
:10792000205F01D0FFF7ECFF236820461D60BDE813
:107930003840FFF7E0BF134343F004031943FFF758
:10794000E4BFF8B5069C9DF81C709DF820609DF87A
:10795000245069B1204639460B22FFF7D1F9204661
:1079600031460422FFF7CCF9204629460B2211E0CC
:10797000194610460422FFF7C3F92046394604226F
:10798000FFF7BEF9204631460B22FFF7B9F9204632
:1079900029460422BDE8F840FFF7B2B9024B07229E
:1079A00058601A60704700BF10E000E008B5044B53
:1079B0001A6801321A60034B1B6803B1984708BD6F
:1079C00078160020A413002011F0010F70B542EAD0
:1079D00003030CBF0825002503FA05F5006801F133
:1079E000FF3400F11800C4F3400450F8241014BF11
:1079F0006FF0FF066FF47F463140294340F82410B2
:107A000070BDF8B507680546FB683E691E4016F074
:107A1000400403D0046A0CB1A0474024F30604D507
:107A2000AB6913B1984744F01004300704D56B6973
:107A300013B1984744F00804710704D52B6913B1BA
:107A4000984744F00404B20704D5EB6813B1984793
:107A500044F00204F30704D5AB6813B1984744F02F
:107A60000104E4433C61F8BD0368013903F140437C
:107A70002033DB0003EB8101890001F18441012304
:107A80000B60704710B504460448A0470448A0475F
:107A90000448A0470448A04710BD00BFEC010020E7
:107AA00014020020A4010020C801002010B50446E3
:107AB0000079FFF7B5FE2079BDE81040FFF7C8BE9A
:107AC00003791E2B10D9212B0ED0202B0ED9222B5F
:107AD00001D0252B04D102298CBF00200120704742
:107AE0004B1E584258417047012070470020704794
:107AF00030B501258D408B1C40F823204279036866
:107B0000ED432AB1012A41F65F6418BF012401E068
:107B100041F6FF642C401C6103F140430C3301EB40
:107B2000C3039B0003F1844301241C600379FAB969
:107B3000B3F11A0253425341072945D8DFE801F057
:107B400004090909090E0E13002B0CBF2C2319235D
:107B500031E0002B0CBF2E231B232CE0002B0CBF8D
:107B60002D231A2327E0002B0CBF2B23182322E000
:107B70001B3B0C2B28D8DFE803F0071D090B0D0F6A
:107B80002711131517191B001C2314E01E2312E0E4
:107B9000322310E036230EE037230CE018230AE0EE
:107BA000192308E01A2306E02B2304E02C2302E02B
:107BB0002D2300E01D235909012203F01F0302FABF
:107BC00003F3024A42F8213030BD00BF00E100E07B
:107BD0000368002203F140430C3301EBC3039B0015
:107BE00003F1844302311A6040F82120704738B510
:107BF00005460C4613460022FFF7E6FE28462146BE
:107C0000BDE83840FFF730BF38B543790446022B52
:107C10000D463ED0042A3CD8DFE802F00312202AA9
:107C20003600FFF7D5FF2368013D03F140432033C1
:107C3000DB0003EB85039B0003F18443002221E07A
:107C40000368002203F140430C3301EBC3039B00A4
:107C500003F184431A606022082301E0102200230C
:107C6000FFF7B2FE20462946BDE83840FFF7FCBECC
:107C700003684FF2F1129A6103229A605B0103F1EB
:107C8000844301221A6038BD0122BDE83840FFF765
:107C9000AEBF38BD10B5074B1C68E16822690A40C9
:107CA000120605D55B6A1BB198476FF0800323610C
:107CB00010BD00BFEC01002010B5074B1C68E16847
:107CC00022690A40D20705D59B681BB198476FF01F
:107CD0000103236110BD00BFEC010020F8B50B4F7C
:107CE0003D68EB682E691E4016F0400403D03C6AE4
:107CF0000CB1A0474024B30604D5FB6913B19847E3
:107D000044F02004E4432C61F8BD00BFEC010020E6
:107D1000F8B5124E3768FB683D691D4015F0100438
:107D200003D0B4690CB1A0471024290704D57369A6
:107D300013B1984744F008046A0704D5336913B1B6
:107D4000984744F00404AB0704D5F36813B198478F
:107D500044F00204E4433C61F8BD00BFEC010020A4
:107D60000148FFF74EBE00BF140200200148FFF794
:107D700048BE00BFA40100200148FFF742BE00BF7B
:107D8000C8010020D36870B59B0638D513689E06DD
:107D900035D513689D0702D41368DC0701D55368F5
:107DA0002DE05568C4888388A4B201349BB29C42FC
:107DB000EDB2046808D0C6880389B6B29BB29E4271
:107DC0000FD183889BB263B983889BB2E35C8688BA
:107DD0000389B6B29BB29E4235D0838801339BB2F1
:107DE0008380C3889BB2E554C4880389A4B29BB244
:107DF0009C4217BFC388002301339BB2C380D36862
:107E0000180622D513681B061FD58888CB8880B238
:107E10009BB2984212D088880B6880B2185C8C881C
:107E20000B89A4B29BB29C4218BF8B88C0B21ABF08
:107E300001339BB200238B80506070BDD36823F068
:107E40008003D36070BD0023CAE770BD02480349B8
:107E5000034AFFF797BF00BFB4130020A813002008
:107E60000038014002480349034AFFF78BBF00BFB7
:107E7000C0130020D81300200044004002480349EA
:107E8000034AFFF77FBF00BFCC130020E41300209C
:107E900000480040294B072818BF18701A78052A97
:107EA00049D8DFE802F003131E222A35244A4FF690
:107EB000FB71106C014011644FF43F4111640622C4
:107EC0001A70204B1B685A7B1A7370471C4A4FF676
:107ED000FB71106C014011644FF43F4111640422A6
:107EE0002AE002225A70032226E05A78013AD2B2DE
:107EF0005A705B780BBB04221BE0114A116C89B2EB
:107F000041F01001116405221A700A225A7070475C
:107F10005A78013AD2B25A705B7873B9084A4FF670
:107F2000EF73116C0B401364064B1B685A7B1A737A
:107F30000622024B00E006221A70704780160020CD
:107F4000005C00400004002070B50446807B0D46B4
:107F50001646FFF765FC084A084B09491A60094BA9
:107F600009480B600949656008600221A6601B682A
:107F70001172984770BD00BF90160020B016002007
:107F8000881600201C040020A4040020AC16002049
:107F9000F8B56C4D6C4B2A685C6C1268A4B202F4A4
:107FA0008062224206D06FF480625A64674B1B687D
:107FB0005B6898472B681B6823409F0403D5624A7F
:107FC0006FF400515164DE0406D55F4B6FF4C0526C
:107FD0005A640020FFF75EFF2A68116821400805F7
:107FE0000FD5594B186C80B240F0080640F00C00D9
:107FF0001E641864107B5073032010736FF4C0521A
:108000005A648B0503D5504B6FF400725A64CF0548
:1080100006D54D4B6FF480725A640720FFF73AFF84
:108020002B681B6803F40043234200F08980464B11
:108030005A6C110440F184806FF4004112F00F0675
:10804000596458D1196848F6800008400028EED0DD
:1080500088B23F4C00F4405525803E4D00F0300082
:1080600028801868D60620F4804020F0700040F484
:10807000004040F0800080F400501860186820F440
:10808000E04020F0400040F4004040F0800080F0EC
:108090002000186001D5080607D5196848F60F7248
:1080A0000A401A6000F01EFF0BE0186840F68F725D
:1080B00002401A600A0502D500F02CFD01E000F034
:1080C00091FE214B22881968288821F4804121F0F3
:1080D000700141F4004141F08001514019601A687B
:1080E00022F4E04222F0400242F4004242F08002D8
:1080F00042401A60F8BDB40004F1804404F5B8446D
:1081000027683B040CD5226840F68F7313402A6819
:108110002360926806F18043013B52F82330984770
:10812000380684D5226848F60F73134023602B6805
:1081300006F180465B68013E53F82630984776E7A3
:10814000F8BD00BF00040020005C0040881600203D
:108150007C1600207E160020800000F1804000F593
:10816000B840036823F4804323F0700343F40043D2
:1081700043F08003594001607047000018B9034B79
:1081800007221B681A820248704700BFB016002001
:108190009C04002037B5114B1A681D46127802F076
:1081A0007F02212A01D0022016E0A0F12003012B3A
:1081B0000B4B0C4C1B6888BF002423B102A901F8AB
:1081C000010D02209847002CEDD02B680025284691
:1081D0009C615D82A047284603B030BDB0160020E8
:1081E000041600207D81000813B5104B1B681A7817
:1081F00002F07F02212A14D1022806D0222806D1BB
:108200009A780B4B02F003021A70002400E002245B
:10821000084B1B6833B102A901F8010D02209847F1
:1082200000E00224204602B010BD00BFB0160020BE
:10823000F01300200416002021B9022834BF0020CA
:108240000220704702207047044B1B689B7A1BB1C9
:10825000034B05221B681A73704700BFB01600203D
:1082600000040020024B04221B681A73704700BFF1
:1082700000040020054B1B689B78032B04D804499D
:1082800001EBC30100F018BC00207047B0160020BD
:1082900068040020014900F00FBC00BF1404002056
:1082A000014900F009BC00BFC80400200C4B0022AB
:1082B0001B6801219A720B4B4FF4E05019640A4974
:1082C00009681A645A6418644FF43F405A6408609D
:1082D0001864064B4FF4801018600A73704700BF93
:1082E000B0160020005C00400004002000E100E027
:1082F0002049214B0A681B6870B59B1A13F0FF03D5
:108300000E461E4905D10A78013AD2B20A70FAB176
:1083100070BD0120087000211948402B28BF402360
:108320000C46184D11F0010FAD5C01F10101EDB2E9
:108330001CBF44EA0525056002F101020CBF2C4672
:1083400004309942D2B2ECD3D90748BF04603260FE
:108350000D4A0E49106D40000B50536823F4E04362
:1083600023F0400343F4004343F0800383F03003E1
:10837000536070BD0C160020F4140020FC15002082
:1083800080610040F1130020005C00401460004058
:108390002DE9F843494B4A4C1B6800254FF0C008B3
:1083A0009D7283F809802565236848F68F1633404F
:1083B00043F400732360236848F2800723F4E0430A
:1083C00023F040033B4383F010032360226D3D4BB9
:1083D00052004FF0400943F80290236D80225B0069
:1083E00003F1804303F5C0431A602368284623F451
:1083F000E24323F070031B041B0C2360324B1B6809
:1084000093F82C1000F076F928464FF44051FFF70E
:10841000A3FEA3680220334043F4C063A360226D2F
:108420002A4B520013444FF480721A60A368294605
:1084300023F4E04323F040033B4383F02003A36095
:10844000FFF78AFEE36803203340E360226D204B90
:10845000520013444FF488721A60494600F04AF9FA
:1084600003204FF44051FFF777FE636801201E4060
:108470006660226D174B520043F8028063682946FC
:1084800023F4E04323F040033B4383F02003636085
:10849000FFF762FE104B01221B6828461A7300F09A
:1084A00005FD0E4BFF221D600D4B1D600D4B1D6029
:1084B0000D4B1D600D4B1A70BDE8F883B0160020FF
:1084C000005C0040086000408816002020600040EA
:1084D00038600040106000400004002008160020B2
:1084E00000160020F41400200C160020FC150020BB
:1084F000F8B5184A184C2368116D02F23C42490045
:10850000565800221549C6F3090610462546B242C0
:108510000DD2D40701D5040A03E00C680431A0B2DF
:10852000E4B20F4F0132FC540133DBB2EFE70D4AE6
:108530002B6012689B1ADBB2BF2B04D803204FF4C8
:108540004051FFF709FE084B1B6813B101200021C1
:108550009847F8BD005C00400816002020620040EB
:10856000FC14002000160020F8140020C20744BFAD
:10857000034B1960830744BF024B1960704700BF6B
:10858000F81400200416002038B50D46044640B10A
:108590000322FEF7B5FB4FF4803202FA05F523689B
:1085A0001D61044B04491868044ABDE83840FFF7D0
:1085B000CBBC00BF000400204C040020800400203D
:1085C00070B50C4611B31249124A0B6812680D4679
:1085D0009A1AD2B2C2F1FF02944201D9A2B1144652
:1085E000002291B2A14202F1010205D2465C0A4981
:1085F000CE540133DBB2F4E72B60084B1B781B062B
:1086000004D5FFF775FE01E0104670BD204670BD31
:10861000F41400200C160020F1130020FC1500209B
:10862000034B1868034B1B68C01AC0B2704700BFE9
:1086300008160020001600200A4B10B51A680A4BD5
:108640001B689B1ADBB2994228BF194600238B4254
:1086500006D0064CA45C0132C454D2B20133F6E712
:10866000184610BD0016002008160020FC1400203B
:1086700010B5FFF7E1FF094A044613680344DBB273
:108680001360074A1268D31ADBB2402B04D80320C8
:108690004FF44051FFF760FD204610BD001600204A
:1086A000081600200C4B30B51C680C4B0C441B68A2
:1086B000E4B21B1BDBB28D189D4288BFC1EB0302E5
:1086C0000023934206D00649095D0134C154E4B247
:1086D0000133F6E7184630BD0016002008160020CA
:1086E000FC140020024B187800F00100704700BF16
:1086F000F0130020104B3E291B6D03EBC0000F4B05
:108700004FEA400003440ED94A09C80608BF02F1E7
:10871000FF32C1F3090108BF92B241F4004141EABE
:1087200082221A6070474A08C80748BF013241EAEE
:1087300082211960704700BF005C00400C6000405F
:1087400010B5064C18B9236801221A8210BD044BDB
:108750001B681B68984720680A3010BDB0160020BF
:10876000AC16002010B5064C18B9236801221A82F5
:1087700010BD044B1B689B68984720680C3010BDE7
:10878000B0160020AC16002010B5204B18B91B689D
:1087900002221A8210BD1E4A1968002010800C782F
:1087A000134614F07F040DD14A7A910644BF02218A
:1087B000197012F0400F1A7814BF22F0010242F033
:1087C000010214E0012C1FD0022C1ED1097901F006
:1087D0000F02920002F1804202F5B84211F0800FC0
:1087E000126806D002F03002102A07D101221A7056
:1087F00004E002F44052B2F5805FF6E7054B1B68D7
:108800001B699847024810BD104610BDB0160020E5
:1088100082160020AC160020234A2DE9F843146884
:108820009046238A267A214FA3B9042E12D12049DB
:108830000A78012A0AD11F4A10681F4A80B20244EE
:108840005200136030223A800B7027E010233B80E7
:10885000072623E0A58AAB428CBF022604269D4250
:1088600028BF1D462846A36998478146002000F08E
:10887000CFFB2A460146484600F063FB294600200C
:1088800000F0E2FB238A4FF440525B1B2382638A91
:108890001D4430233B80094B65821A80D8F8003094
:1088A0001E72BDE8F88300BFB01600207E160020BF
:1088B00010160020505C0040023000207C16002082
:1088C00010B50A4B0A491B6849789A7891420AD335
:1088D000D97841B99C8834B99A72064B1B685B6899
:1088E0009847204610BD022010BD00BFB0160020E2
:1088F000D0040020AC16002038B50E4A0E4C126889
:108900002368926918799978904723689A7A7AB19E
:1089100070B95A7962B9DD7855B9084B1B68DB68C4
:108920009847236828461A79DA729A781A7338BDFC
:10893000022038BD88160020B0160020AC1600209A
:1089400038B52F4B1B68187810F07F0004D15A7A85
:1089500022F020025A7238BD02284ED15A88002ACD
:108960004CD15A79002A49D11A79264D22F080003B
:10897000840004F1804101F5B84109682D7812F0B6
:10898000800F14BF01F0300101F44051A84234D2ED
:10899000002932D09B7A83B304F1804404F5B844B3
:1089A000120623680CD503F03003102B1FD1C4B27C
:1089B000204600F01CFB2046302100F0F3FA16E0C0
:1089C00003F44053B3F5805F11D128B90E4B93F8EF
:1089D0002C1000F047FB01E000F0F9FA236823F4C3
:1089E000804323F070039BB283F440532360074B12
:1089F0001B685B699847002038BD022038BD00BF66
:108A0000B0160020D00400201C040020AC1600206A
:108A100038B51D4B1D4D19682D780A7922F0800458
:108A2000A30003F1804000F5B840006812F0800F09
:108A300014BF00F0300000F44050AC4222D24C8809
:108A400004BBF8B1897AE9B103F1804303F5B84377
:108A500012F0800F1A6807D022F4E04222F04002A0
:108A600092B282F0100206E022F4804222F07002FC
:108A700092B282F480521A60054B1B689B6998473A
:108A8000002038BD022038BDB0160020D0040020E0
:108A9000AC16002008B5064B1B685A7A42F020023B
:108AA0005A72044B1B68DB699847002008BD00BF61
:108AB000B0160020AC160020054B1A68538A18B96E
:108AC0008988CB1A1382704708681844704700BF22
:108AD000B016002008B50B4B002093F82C1000F0C6
:108AE000C1FA094B1B68187A082806D1074B4FF4C6
:108AF00080521A80064B10221A80B0F109035842A6
:108B0000584108BD1C040020B01600207C1600202F
:108B10007E16002073B5934E934B3268934D92B2FC
:108B200013445B001A682B68197A09290FD092B296
:108B3000520002F1804202F5C0421178197051785A
:108B4000597091885980118999809289DA8001221F
:108B50001A72DA885C78002A61D11A7812F07F02E2
:108B60003AD1092C02D1FFF7ABFE44E0052C0FD11E
:108B700093F90220002A01DA08234DE0DA78002A6E
:108B8000FAD19A88002AF7D19B7A002B37D0F3E7E5
:108B9000032C13D19A78012A07D0754B20461B6805
:108BA0005B699847032828D135E09A88002AF4D1D8
:108BB0005B7A9806F1D5FFF76DFF1CE0012CECD134
:108BC0009A78012AE9D19A88002AE6D15B7A990637
:108BD000E3D5FFF7B5FE0EE0012A04D10B2CDCD162
:108BE000FFF78AFE07E0022AD7D1012CF1D0032C2F
:108BF000D3D1FFF70DFF10B1CFE70028BCD1326809
:108C00005C4B92B213445B0000221A605A4B302234
:108C10001A80062300E009232A681372CEE0062C8E
:108C200013D11A78520677D1DA78514B012A02D142
:108C30001B68DB6967E0022A02D11B681B6A62E0DD
:108C4000032A69D11B685B6A5DE0002C3CD159881E
:108C5000002961D15A6822F0FF02B2F5003F5BD1D2
:108C60001A7812F07F0204D19B88002B00F0AA80B2
:108C700052E0012A0CD13E4A187912689269904755
:108C8000002849D12B689B7A002B40F09B8043E061
:108C9000022A41D11B79394803F00F018A0002F101
:108CA000804202F5B8421268007813F0800F14BFBA
:108CB00002F0300202F4405281422DD213F0700FC4
:108CC0002AD1002A7ED127E0082C03D11B785B062D
:108CD0007AD021E00A2C1FD11A7802F07F02012AF3
:108CE0001AD19A7AC2B15988B1B95A6822F0FF02F2
:108CF000B2F5803F10D11E4A1879126892699047E8
:108D0000002863D008E03BB12A68002454829361B4
:108D10002046984720460AE0154B1A682B681269CE
:108D200058789047032802D1104B1B6805E02B6848
:108D30004FF6FF711A8A8A4201D1092203E0022804
:108D400000D012B908221A7238E093F900100029F5
:108D50002EDAD988019101988242054810D9019AEA
:108D60001A821EE0505C004004300020B016002043
:108D700088160020023000207E160020D00400203B
:108D80008A420ED2016891F82C108A4201D2002149
:108D900005E092FBF1F401FB142212B901210C4A07
:108DA0001170026892F82C209A82FFF735FD05E0D9
:108DB00003221A72074B4FF440521A80FFF78AFEC3
:108DC00002B070BD044B9FE7044B9DE7044B9BE74B
:108DD000101600207C1600208987000841870008B3
:108DE00065870008F8B52B4D2C68237A032B01D03A
:108DF000052B41D1A369228AABB1A2B1A68A9642C2
:108E000028BF164630469847238A07469B1B238275
:108E1000638A00203344638200F008F93246014639
:108E2000384600F0A6F8238A53B11B4B00204FF4BC
:108E3000405201461A8000F007F9184B30221A8080
:108E4000238AA28A9A4202D82B68032202E01BB12D
:108E50002B6805221A720CE02A6806211172104A4A
:108E60001168104A89B20A44520013600B4B302239
:108E70001A802B681B7A06E0072B03D10A4B1B686C
:108E8000DB68984708232A681372BDE8F840FFF7AB
:108E900021BE00BFB01600207C1600207E160020E8
:108EA000505C0040023000208816002030B50B4B8B
:108EB0001C780023A3420CD203F1805202F5B85271
:108EC00091000D6848F68F722A401A430A600133F8
:108ED000F0E7034B40F08000186030BDD004002064
:108EE0004C5C004010B5134C23681A7A022A01D05A
:108EF000042A04D1FFF790FC23681B7A13E0062AAA
:108F000010D15A78052A09D11A78520606D19878D4
:108F1000FFF7CCFF084B1B681B6A9847074B1B6881
:108F20009B689847082322681372BDE81040FFF73A
:108F3000D1BD00BFB0160020AC160020881600205E
:108F4000704730B501F10051013201F54051521026
:108F500049000023934200F1020009D010F8015C9F
:108F600010F8024C44EA052421F823400133F1E7CC
:108F700030BD01F1005101F5405149005308F0B5F1
:108F80001C460E46054634B156F8047B013C25F8D4
:108F9000027BA4B2F7E7D20744BF11F8232000F800
:108FA0001320F0BD800000F1804000F5B840036858
:108FB000CA0623F4E04323F040039BB248BF83F08A
:108FC00010038A0648BF83F02003036070478000C7
:108FD00000F1804000F5B84003685B0406D50268E4
:108FE00048F68F73134043F480430360704780005A
:108FF00000F1804000F5B84003685B0606D50268C2
:1090000048F68F73134043F040030360704700003D
:10901000054B1B689BB203EBC00000F1005000F54C
:109020004050400000887047505C0040044B1B6873
:109030009BB203EBC000034B03445B0018887047EE
:10904000505C004004300020044B1B689BB203EBD3
:10905000C000034B03445B0019607047505C004044
:10906000023000200D4B3E291B689BB203EBC00071
:109070000B4B03444FEA430209D94B09C80604BF0E
:1090800003F1FF339BB29B0243F4004304E04B081F
:10909000C90748BF01339B0213607047505C004012
:1090A0000630002008B5114B0D211C680322204614
:1090B000FDF726FE002301211A469342206834BFA3
:1090C0004FF400554FF00055B2F5007F056103F1F4
:1090D000010303D0002A08BF012101E04FF0FF3156
:1090E000B3F5007F04BF52180023E6E7A8D30008B9
:1090F00008B5034B0BB1AFF3008062B6FFF7D2FFA8
:1091000000000000C288838892B29BB2C188D31A43
:10911000828889B292B2914203D2028992B201321C
:10912000134498B2704710B5036904465868FFF7B6
:10913000E9FF90B123695B6899881A6889B2505C2D
:1091400099881A8989B292B2914217BF9A880022EF
:10915000013292B2C0B29A8010BD4FF0FF3010BD04
:1091600008B503695868FFF7CDFF08BD03695B6860
:109170009988DA8889B292B2914205D09A881B68A0
:1091800092B2985CC0B270474FF0FF3070470369ED
:109190009A689088D18880B289B28842F9D11A68D9
:1091A00013685B06FCD5704713B504698DF807108A
:1091B00020460DF10701012200F001FB0028F7D045
:1091C000012002B010BD000030B5002545604FF40D
:1091D0007A758560024D016105600275437530BD89
:1091E000A0D40008044B02791B789A4202D1034BA9
:1091F0001B681860704700BF241600202816002046
:10920000002310B50446036072B6054B193119707E
:10921000044B18600448FEF735FC62B6204610BDCA
:109220002416002028160020E5910008036800227B
:109230001B685B0103F184431A60704703680122D5
:109240001B685B0103F184431A60704703680139AE
:109250001B6889B29962704738B5054639B9036809
:1092600001221B689962DA62D86A80B238BD48244C
:109270004C434FF6FF71B4FBF1F1013189B204EBBD
:109280005104B4FBF1F4FFF7E1FF2B68A4B21B68B3
:109290002046DC6238BD0068C9B2FEF7B5BC036881
:1092A000C9B21B6801F18041D86A013980B23433F8
:1092B000824228BF024643F8212070470068C9B2A5
:1092C000FEF716BC036801221B685B0103F18443AF
:1092D000C3F880227047000008B501210848FFF755
:1092E0008FFF02210748FFF78BFF03210648FFF796
:1092F00087FFBDE8084005480421FFF781BF00BF94
:1093000014160020181600201C160020201600201D
:10931000F8B505460C4616468F18BC4206D02B6899
:1093200028461B6814F8011B9847F6E73046F8BD3D
:1093300038B505460C46084641B101F0DDF82B680A
:1093400002469B6828462146984738BD38BD08B577
:1093500003681B68984708BD08B503685B689847B1
:1093600008BD38B50D210546FFF7F1FF0A21044677
:109370002846FFF7ECFF204438BD38B50446FFF718
:10938000EBFF05462046FFF7ECFF284438BD2DE9EA
:10939000F04F14461D4691B054EA050381469DF8EE
:1093A00068B004D13021FFF7D2FF01202EE04FF04A
:1093B00000085FFA8BF600272046294632463B46D6
:1093C00000F04CFA08F101080DF1000AC2440AF855
:1093D000012C204629463B46324600F03FFA04461F
:1093E0000D4654EA0503E4D1002408F1FF381DF8C6
:1093F00008104846092994BF30313731C9B2FFF708
:10940000A6FF0444B8F1000FEFD1204611B0BDE82B
:10941000F08F37B5D2B2009200230A460446FFF718
:10942000B6FF05462046FFF79CFF284403B030BD39
:10943000FEE7FDF73DBA08B5FBF778FEFBF7FCFE4B
:10944000FCE70000034B1A6822F0E06242F0806201
:109450001A60704704000140222870B53BD80829E3
:1094600039D8DFE801F0051A080B0E1108141700AF
:109470000024032213E00024042210E000242246EA
:109480000DE0002409220AE00024082207E001245C
:109490000B2204E001240F2201E0002407220E4BDE
:1094A00000011E18317B1858FDF72AFC706890B136
:1094B000717B24B10122BDE87040FEF7A5BB0368B3
:1094C000013903F140432033DB0003EB81039B00B0
:1094D00003F184431C6070BD78D10008FFF7A0B889
:1094E00007B501210DF10700FFF7A6F801280CBF11
:1094F0009DF807004FF0FF3003B05DF804FB07B59F
:1095000001210DF10700FFF7B3F810B19DF8070036
:1095100001E04FF0FF3003B05DF804FB08B50B78B5
:10952000222B13D1FFF7DEF8094B1A78032A0DD846
:10953000DFE802F00702070700280CBF0222012221
:1095400003E000280CBF032201221A7008BD00BFEF
:1095500040160020194B13B51A781C46022A2AD14E
:10956000FFF75EF8032826D9FFF75AF80422011FF7
:1095700001A8FFF797F89DF80430312B0BD19DF827
:109580000530452B07D19DF80630412B03D19DF8BE
:109590000730462B02D0032323700CE000F0E2F8E2
:1095A00000F0ECF80A2044F24C2100F0F3F800F04F
:1095B000EBF8FEF7DDF802B010BD00BF401600204A
:1095C000002242604FF47A728260014A0260704762
:1095D000C8D40008094B10B5187870B901240146A9
:1095E0001C70FEF7D1FF20460549FEF7BFFFBDE81E
:1095F000104002200349FEF7B9BF10BD2C16002011
:10960000559500081D95000807B50191019BFFF7CE
:10961000E1FF03B05DF804FB70B516460D4631B1AD
:109620000E4B1B681B7B052B03D0002070BD08462A
:1096300070BD0B4B1B782BB928463146BDE87040F6
:10964000FEF7BEBF0024B44205D22819311BFEF735
:10965000B7FF0444F7E7204670BD00BF00040020B8
:109660004116002007B502AB03F8011D194601227F
:10967000FFF7D2FF03B05DF804FB38B50546084696
:109680000C4600F039FF214602462846BDE8384026
:10969000FFF7C2BF70B50E4615460024AC4205D296
:1096A0003019291BFEF7E4FF0444F7E7204670BD9C
:1096B00013B50446FEF7B4FF30B120460DF10701A3
:1096C0000122FFF7E7FFF5E702B010BD0148FFF701
:1096D00077BF00BF30160020222810D8084B0001A9
:1096E0001A18127B1B58012000FA02F2D1F1010175
:1096F00038BF0021090102FA01F11B6819617047A6
:1097000078D100080A4B1A680A4B9B6800BF00BF5B
:10971000074909688A42F5D1C3F58C33482103F51E
:10972000A073B3FBF1F34FF47A7000FB0230704783
:109730007816002010E000E038B50446FFF7E2FF9D
:10974000054644B100F00DF8FFF7DCFF401BB0F513
:109750007A7F01D2F5E738BD013C05F57A75F3D182
:1097600038BD704708B51420FEF75AF80420FEF7FC
:1097700057F8BDE808400420FEF76AB8014B012203
:109780001A60704720000E42014B00221A60704799
:1097900020000E42431E092B06D8800000F18040B5
:1097A00000F5D84000B10160704710B5044600795B
:1097B000FEF736F82079BDE81040FEF749B8F0B55D
:1097C00083680546046800209F88DE88BFB2B6B271
:1097D000B74204D0E36823F08003E36027E0266803
:1097E0003606F7D59042F5D00E5C01306660EBE7A7
:1097F000DF889E88BFB2B6B20137B74211F800C009
:109800001DD0DF881E89BFB2B6B2B74213D0DF8841
:109810001E68BFB206F807C0DF881E89BFB2B6B2A5
:10982000B74218D0DE880136B6B2DE8001309042F1
:10983000AB68DDD303E09E88B6B2002EE7D19A88EC
:10984000DB8892B29BB29A4200D1F0BDE36843F04C
:109850008003E360F0BD0026E7E700004BB942B9A2
:10986000002908BF002802D04FF0FF31084600F061
:109870003BB882B0EC462DE9005000F01DF8DDF851
:1098800004E002B00CBC70472DE9704F089E1446EE
:109890001D468046894600F029F804FB01F3A4FB2D
:1098A00000AB00FB05329344B8EB0A0869EB0B09E7
:1098B000C6E90089BDE8708F2DE9704F089E1446F7
:1098C0001D468046894600F061F900FB05F5A0FBC6
:1098D00004AB04FB0154A344B8EB0A0869EB0B0981
:1098E000C6E90089BDE8708F704700BF00292DE9E7
:1098F000F00FC0F2A1800024002BC0F29880154622
:1099000006460F46002B3FD18A4258D9B2FA82F35D
:109910004BB1C3F1200201FA03F720FA02F29D4095
:1099200000FA03F61743290CB7FBF1F201FB12779B
:10993000A8B200FB02F34FEA164C4CEA0747BB42C1
:1099400009D97F1902F1FF3C80F00581BB4240F24A
:109950000281023A2F44FF1AB7FBF1F301FB1371A6
:1099600000FB03F0B6B246EA0141884208D9491922
:1099700003F1FF3780F0F180884240F2EE80023B35
:1099800043EA0242002303E08B420AD900231A462D
:109990001046194614B1404261EB4101BDE8F00F99
:1099A0007047B3FA83F8B8F1000F40F088808B421B
:1099B00002D3824200F2E28000230122E8E712B9DA
:1099C0000123B3FBF2F5B5FA85F2002A3AD17F1BE9
:1099D000280C1FFA85FC0123B7FBF0F100FB11777F
:1099E0000CFB01F24FEA164848EA0747BA4207D98A
:1099F0007F1901F1FF3802D2BA4200F2C480414619
:109A0000BF1AB7FBF0F200FB12700CFB02FCB6B2FF
:109A100046EA0040844507D9401902F1FF3702D2D7
:109A2000844500F2AE803A4642EA0142B0E7E443A0
:109A3000524263EB430362E7404261EB41014FF066
:109A4000FF3459E79540C2F1200927FA09F126FAB7
:109A500009F99740280CB1FBF0F800FB18111FFA28
:109A600085FC0CFB08F349EA07094FEA194747EA66
:109A700001418B4206FA02F608D9491908F1FF3272
:109A80007AD28B4278D9A8F102082944C91AB1FBCD
:109A9000F0F300FB13170CFB03F21FFA89F949EAF4
:109AA0000747BA4207D97F1903F1FF3160D2BA42A2
:109AB0005ED9023B2F44BF1A43EA08438CE7C8F142
:109AC000200225FA02F103FA08FC27FA02F320FA31
:109AD00002F207FA08F741EA0C0C4FEA1C49B3FB03
